{
  "_format": "hh-sol-artifact-1",
  "contractName": "SBT",
  "sourceName": "contracts/SBT.sol",
  "abi": [
    {
      "inputs": [
        {
          "internalType": "string",
          "name": "name_",
          "type": "string"
        },
        {
          "internalType": "string",
          "name": "symbol_",
          "type": "string"
        }
      ],
      "stateMutability": "nonpayable",
      "type": "constructor"
    },
    {
      "anonymous": false,
      "inputs": [
        {
          "indexed": true,
          "internalType": "address",
          "name": "to",
          "type": "address"
        },
        {
          "indexed": true,
          "internalType": "uint256",
          "name": "tokenId",
          "type": "uint256"
        }
      ],
      "name": "Attest",
      "type": "event"
    },
    {
      "anonymous": false,
      "inputs": [
        {
          "indexed": true,
          "internalType": "address",
          "name": "from",
          "type": "address"
        },
        {
          "indexed": true,
          "internalType": "uint256",
          "name": "tokenId",
          "type": "uint256"
        }
      ],
      "name": "Burn",
      "type": "event"
    },
    {
      "anonymous": false,
      "inputs": [
        {
          "indexed": true,
          "internalType": "address",
          "name": "from",
          "type": "address"
        },
        {
          "indexed": true,
          "internalType": "uint256",
          "name": "tokenId",
          "type": "uint256"
        }
      ],
      "name": "Revoke",
      "type": "event"
    },
    {
      "inputs": [
        {
          "internalType": "address",
          "name": "to",
          "type": "address"
        }
      ],
      "name": "attest",
      "outputs": [
        {
          "internalType": "uint256",
          "name": "",
          "type": "uint256"
        }
      ],
      "stateMutability": "nonpayable",
      "type": "function"
    },
    {
      "inputs": [
        {
          "internalType": "address",
          "name": "owner",
          "type": "address"
        }
      ],
      "name": "balanceOf",
      "outputs": [
        {
          "internalType": "uint256",
          "name": "",
          "type": "uint256"
        }
      ],
      "stateMutability": "view",
      "type": "function"
    },
    {
      "inputs": [],
      "name": "burn",
      "outputs": [],
      "stateMutability": "nonpayable",
      "type": "function"
    },
    {
      "inputs": [],
      "name": "name",
      "outputs": [
        {
          "internalType": "string",
          "name": "",
          "type": "string"
        }
      ],
      "stateMutability": "view",
      "type": "function"
    },
    {
      "inputs": [],
      "name": "operator",
      "outputs": [
        {
          "internalType": "address",
          "name": "",
          "type": "address"
        }
      ],
      "stateMutability": "view",
      "type": "function"
    },
    {
      "inputs": [
        {
          "internalType": "uint256",
          "name": "tokenId",
          "type": "uint256"
        }
      ],
      "name": "ownerOf",
      "outputs": [
        {
          "internalType": "address",
          "name": "",
          "type": "address"
        }
      ],
      "stateMutability": "view",
      "type": "function"
    },
    {
      "inputs": [
        {
          "internalType": "address",
          "name": "from",
          "type": "address"
        }
      ],
      "name": "revoke",
      "outputs": [],
      "stateMutability": "nonpayable",
      "type": "function"
    },
    {
      "inputs": [
        {
          "internalType": "string",
          "name": "uri",
          "type": "string"
        }
      ],
      "name": "setBaseTokenURI",
      "outputs": [],
      "stateMutability": "nonpayable",
      "type": "function"
    },
    {
      "inputs": [
        {
          "internalType": "bytes4",
          "name": "interfaceId",
          "type": "bytes4"
        }
      ],
      "name": "supportsInterface",
      "outputs": [
        {
          "internalType": "bool",
          "name": "",
          "type": "bool"
        }
      ],
      "stateMutability": "view",
      "type": "function"
    },
    {
      "inputs": [],
      "name": "symbol",
      "outputs": [
        {
          "internalType": "string",
          "name": "",
          "type": "string"
        }
      ],
      "stateMutability": "view",
      "type": "function"
    },
    {
      "inputs": [
        {
          "internalType": "address",
          "name": "from",
          "type": "address"
        }
      ],
      "name": "tokenIdOf",
      "outputs": [
        {
          "internalType": "uint256",
          "name": "",
          "type": "uint256"
        }
      ],
      "stateMutability": "view",
      "type": "function"
    },
    {
      "inputs": [
        {
          "internalType": "uint256",
          "name": "tokenId",
          "type": "uint256"
        }
      ],
      "name": "tokenURI",
      "outputs": [
        {
          "internalType": "string",
          "name": "",
          "type": "string"
        }
      ],
      "stateMutability": "view",
      "type": "function"
    }
  ],
  "bytecode": "0x60806040523480156200001157600080fd5b50604051620022cb380380620022cb833981810160405281019062000037919062000316565b81600790805190602001906200004f929190620000c9565b50806008908051906020019062000068929190620000c9565b5062000079620000c160201b60201c565b600a60006101000a81548173ffffffffffffffffffffffffffffffffffffffff021916908373ffffffffffffffffffffffffffffffffffffffff160217905550505062000400565b600033905090565b828054620000d790620003ca565b90600052602060002090601f016020900481019282620000fb576000855562000147565b82601f106200011657805160ff191683800117855562000147565b8280016001018555821562000147579182015b828111156200014657825182559160200191906001019062000129565b5b5090506200015691906200015a565b5090565b5b80821115620001755760008160009055506001016200015b565b5090565b6000604051905090565b600080fd5b600080fd5b600080fd5b600080fd5b6000601f19601f8301169050919050565b7f4e487b7100000000000000000000000000000000000000000000000000000000600052604160045260246000fd5b620001e28262000197565b810181811067ffffffffffffffff82111715620002045762000203620001a8565b5b80604052505050565b60006200021962000179565b9050620002278282620001d7565b919050565b600067ffffffffffffffff8211156200024a5762000249620001a8565b5b620002558262000197565b9050602081019050919050565b60005b838110156200028257808201518184015260208101905062000265565b8381111562000292576000848401525b50505050565b6000620002af620002a9846200022c565b6200020d565b905082815260208101848484011115620002ce57620002cd62000192565b5b620002db84828562000262565b509392505050565b600082601f830112620002fb57620002fa6200018d565b5b81516200030d84826020860162000298565b91505092915050565b6000806040838503121562000330576200032f62000183565b5b600083015167ffffffffffffffff81111562000351576200035062000188565b5b6200035f85828601620002e3565b925050602083015167ffffffffffffffff81111562000383576200038262000188565b5b6200039185828601620002e3565b9150509250929050565b7f4e487b7100000000000000000000000000000000000000000000000000000000600052602260045260246000fd5b60006002820490506001821680620003e357607f821691505b60208210811415620003fa57620003f96200039b565b5b50919050565b611ebb80620004106000396000f3fe608060405234801561001057600080fd5b50600436106100b45760003560e01c806370a082311161007157806370a082311461017b57806374a8f103146101ab578063773c02d4146101c757806395d89b41146101f7578063c87b56dd14610215578063eb31403f14610245576100b4565b806301ffc9a7146100b957806306fdde03146100e957806330176e131461010757806344df8e7014610123578063570ca7351461012d5780636352211e1461014b575b600080fd5b6100d360048036038101906100ce91906113b2565b610275565b6040516100e091906113fa565b60405180910390f35b6100f1610357565b6040516100fe91906114ae565b60405180910390f35b610121600480360381019061011c9190611605565b6103e9565b005b61012b61049a565b005b610135610583565b604051610142919061168f565b60405180910390f35b610165600480360381019061016091906116e0565b6105ad565b604051610172919061168f565b60405180910390f35b61019560048036038101906101909190611739565b610601565b6040516101a29190611775565b60405180910390f35b6101c560048036038101906101c09190611739565b610635565b005b6101e160048036038101906101dc9190611739565b610819565b6040516101ee9190611775565b60405180910390f35b6101ff610850565b60405161020c91906114ae565b60405180910390f35b61022f600480360381019061022a91906116e0565b6108e2565b60405161023c91906114ae565b60405180910390f35b61025f600480360381019061025a9190611739565b610942565b60405161026c9190611775565b60405180910390f35b60007f80ac58cd000000000000000000000000000000000000000000000000000000007bffffffffffffffffffffffffffffffffffffffffffffffffffffffff1916827bffffffffffffffffffffffffffffffffffffffffffffffffffffffff1916148061034057507f5b5e139f000000000000000000000000000000000000000000000000000000007bffffffffffffffffffffffffffffffffffffffffffffffffffffffff1916827bffffffffffffffffffffffffffffffffffffffffffffffffffffffff1916145b80610350575061034f82610b32565b5b9050919050565b606060078054610366906117bf565b80601f0160208091040260200160405190810160405280929190818152602001828054610392906117bf565b80156103df5780601f106103b4576101008083540402835291602001916103df565b820191906000526020600020905b8154815290600101906020018083116103c257829003601f168201915b5050505050905090565b600a60009054906101000a900473ffffffffffffffffffffffffffffffffffffffff1673ffffffffffffffffffffffffffffffffffffffff1661042a610b9c565b73ffffffffffffffffffffffffffffffffffffffff1614610480576040517f08c379a000000000000000000000000000000000000000000000000000000000815260040161047790611863565b60405180910390fd5b80600990805190602001906104969291906112a3565b5050565b60006104a4610b9c565b90506104ba816003610ba490919063ffffffff16565b6104f9576040517f08c379a00000000000000000000000000000000000000000000000000000000081526004016104f0906118f5565b60405180910390fd5b600061050f826003610bd490919063ffffffff16565b9050610525826003610c0790919063ffffffff16565b5061053a816000610c3790919063ffffffff16565b50808273ffffffffffffffffffffffffffffffffffffffff167fcc16f5dbb4873280815c1ee09dbd06736cffcc184412cf7a71a0fdb75d397ca560405160405180910390a35050565b6000600a60009054906101000a900473ffffffffffffffffffffffffffffffffffffffff16905090565b60006105fa826040518060400160405280600f81526020017f496e76616c696420746f6b656e496400000000000000000000000000000000008152506000610c519092919063ffffffff16565b9050919050565b600080610618836003610c7090919063ffffffff16565b5090508061062757600061062a565b60015b60ff16915050919050565b600a60009054906101000a900473ffffffffffffffffffffffffffffffffffffffff1673ffffffffffffffffffffffffffffffffffffffff16610676610b9c565b73ffffffffffffffffffffffffffffffffffffffff16146106cc576040517f08c379a00000000000000000000000000000000000000000000000000000000081526004016106c390611987565b60405180910390fd5b600073ffffffffffffffffffffffffffffffffffffffff168173ffffffffffffffffffffffffffffffffffffffff16141561073c576040517f08c379a0000000000000000000000000000000000000000000000000000000008152600401610733906119f3565b60405180910390fd5b610750816003610ba490919063ffffffff16565b61078f576040517f08c379a0000000000000000000000000000000000000000000000000000000008152600401610786906118f5565b60405180910390fd5b60006107a5826003610bd490919063ffffffff16565b90506107bb826003610c0790919063ffffffff16565b506107d0816000610c3790919063ffffffff16565b50808273ffffffffffffffffffffffffffffffffffffffff167fec9ab91322523c899ede7830ec9bfc992b5981cdcc27b91162fb23de5791117b60405160405180910390a35050565b600061084982604051806060016040528060238152602001611e63602391396003610cb29092919063ffffffff16565b9050919050565b60606008805461085f906117bf565b80601f016020809104026020016040519081016040528092919081815260200182805461088b906117bf565b80156108d85780601f106108ad576101008083540402835291602001916108d8565b820191906000526020600020905b8154815290600101906020018083116108bb57829003601f168201915b5050505050905090565b60606000600980546108f3906117bf565b90501161090f576040518060200160405280600081525061093b565b600961091a83610ce7565b60405160200161092b929190611ae3565b6040516020818303038152906040525b9050919050565b6000600a60009054906101000a900473ffffffffffffffffffffffffffffffffffffffff1673ffffffffffffffffffffffffffffffffffffffff16610985610b9c565b73ffffffffffffffffffffffffffffffffffffffff16146109db576040517f08c379a00000000000000000000000000000000000000000000000000000000081526004016109d290611b79565b60405180910390fd5b600073ffffffffffffffffffffffffffffffffffffffff168273ffffffffffffffffffffffffffffffffffffffff161415610a4b576040517f08c379a0000000000000000000000000000000000000000000000000000000008152600401610a42906119f3565b60405180910390fd5b610a5f826003610ba490919063ffffffff16565b15610a9f576040517f08c379a0000000000000000000000000000000000000000000000000000000008152600401610a9690611be5565b60405180910390fd5b610aa96006610e48565b6000610ab56006610e5e565b9050610acd83826003610e6c9092919063ffffffff16565b50610ae481846000610ea19092919063ffffffff16565b50808373ffffffffffffffffffffffffffffffffffffffff167fe9274a84b19e9428826de6bae8c48329354f8f0e73f771b97cae2d9dccd45a2760405160405180910390a380915050919050565b60007f01ffc9a7000000000000000000000000000000000000000000000000000000007bffffffffffffffffffffffffffffffffffffffffffffffffffffffff1916827bffffffffffffffffffffffffffffffffffffffffffffffffffffffff1916149050919050565b600033905090565b6000610bcc836000018373ffffffffffffffffffffffffffffffffffffffff1660001b610ed6565b905092915050565b6000610bfc836000018373ffffffffffffffffffffffffffffffffffffffff1660001b610ef6565b60001c905092915050565b6000610c2f836000018373ffffffffffffffffffffffffffffffffffffffff1660001b610f72565b905092915050565b6000610c49836000018360001b610f72565b905092915050565b6000610c64846000018460001b84610fab565b60001c90509392505050565b600080600080610c9c866000018673ffffffffffffffffffffffffffffffffffffffff1660001b61102c565b91509150818160001c9350935050509250929050565b6000610cdb846000018473ffffffffffffffffffffffffffffffffffffffff1660001b84610fab565b60001c90509392505050565b60606000821415610d2f576040518060400160405280600181526020017f30000000000000000000000000000000000000000000000000000000000000008152509050610e43565b600082905060005b60008214610d61578080610d4a90611c34565b915050600a82610d5a9190611cac565b9150610d37565b60008167ffffffffffffffff811115610d7d57610d7c6114da565b5b6040519080825280601f01601f191660200182016040528015610daf5781602001600182028036833780820191505090505b5090505b60008514610e3c57600182610dc89190611cdd565b9150600a85610dd79190611d11565b6030610de39190611d42565b60f81b818381518110610df957610df8611d98565b5b60200101907effffffffffffffffffffffffffffffffffffffffffffffffffffffffffffff1916908160001a905350600a85610e359190611cac565b9450610db3565b8093505050505b919050565b6001816000016000828254019250508190555050565b600081600001549050919050565b6000610e98846000018473ffffffffffffffffffffffffffffffffffffffff1660001b8460001b61107c565b90509392505050565b6000610ecd846000018460001b8473ffffffffffffffffffffffffffffffffffffffff1660001b61107c565b90509392505050565b6000610eee82846000016110b790919063ffffffff16565b905092915050565b6000808360020160008481526020019081526020016000205490506000801b81141580610f295750610f288484610ed6565b5b610f68576040517f08c379a0000000000000000000000000000000000000000000000000000000008152600401610f5f90611e13565b60405180910390fd5b8091505092915050565b600082600201600083815260200190815260200160002060009055610fa382846000016110ce90919063ffffffff16565b905092915050565b6000808460020160008581526020019081526020016000205490506000801b81141580610fde5750610fdd8585610ed6565b5b8390611020576040517f08c379a000000000000000000000000000000000000000000000000000000000815260040161101791906114ae565b60405180910390fd5b50809150509392505050565b60008060008460020160008581526020019081526020016000205490506000801b81141561106c5761105e8585610ed6565b6000801b9250925050611075565b60018192509250505b9250929050565b600081846002016000858152602001908152602001600020819055506110ae83856000016110e590919063ffffffff16565b90509392505050565b60006110c683600001836110fc565b905092915050565b60006110dd836000018361111f565b905092915050565b60006110f48360000183611233565b905092915050565b600080836001016000848152602001908152602001600020541415905092915050565b600080836001016000848152602001908152602001600020549050600081146112275760006001826111519190611cdd565b90506000600186600001805490506111699190611cdd565b90508181146111d857600086600001828154811061118a57611189611d98565b5b90600052602060002001549050808760000184815481106111ae576111ad611d98565b5b90600052602060002001819055508387600101600083815260200190815260200160002081905550505b856000018054806111ec576111eb611e33565b5b60019003818190600052602060002001600090559055856001016000868152602001908152602001600020600090556001935050505061122d565b60009150505b92915050565b600061123f83836110fc565b61129857826000018290806001815401808255809150506001900390600052602060002001600090919091909150558260000180549050836001016000848152602001908152602001600020819055506001905061129d565b600090505b92915050565b8280546112af906117bf565b90600052602060002090601f0160209004810192826112d15760008555611318565b82601f106112ea57805160ff1916838001178555611318565b82800160010185558215611318579182015b828111156113175782518255916020019190600101906112fc565b5b5090506113259190611329565b5090565b5b8082111561134257600081600090555060010161132a565b5090565b6000604051905090565b600080fd5b600080fd5b60007fffffffff0000000000000000000000000000000000000000000000000000000082169050919050565b61138f8161135a565b811461139a57600080fd5b50565b6000813590506113ac81611386565b92915050565b6000602082840312156113c8576113c7611350565b5b60006113d68482850161139d565b91505092915050565b60008115159050919050565b6113f4816113df565b82525050565b600060208201905061140f60008301846113eb565b92915050565b600081519050919050565b600082825260208201905092915050565b60005b8381101561144f578082015181840152602081019050611434565b8381111561145e576000848401525b50505050565b6000601f19601f8301169050919050565b600061148082611415565b61148a8185611420565b935061149a818560208601611431565b6114a381611464565b840191505092915050565b600060208201905081810360008301526114c88184611475565b905092915050565b600080fd5b600080fd5b7f4e487b7100000000000000000000000000000000000000000000000000000000600052604160045260246000fd5b61151282611464565b810181811067ffffffffffffffff82111715611531576115306114da565b5b80604052505050565b6000611544611346565b90506115508282611509565b919050565b600067ffffffffffffffff8211156115705761156f6114da565b5b61157982611464565b9050602081019050919050565b82818337600083830152505050565b60006115a86115a384611555565b61153a565b9050828152602081018484840111156115c4576115c36114d5565b5b6115cf848285611586565b509392505050565b600082601f8301126115ec576115eb6114d0565b5b81356115fc848260208601611595565b91505092915050565b60006020828403121561161b5761161a611350565b5b600082013567ffffffffffffffff81111561163957611638611355565b5b611645848285016115d7565b91505092915050565b600073ffffffffffffffffffffffffffffffffffffffff82169050919050565b60006116798261164e565b9050919050565b6116898161166e565b82525050565b60006020820190506116a46000830184611680565b92915050565b6000819050919050565b6116bd816116aa565b81146116c857600080fd5b50565b6000813590506116da816116b4565b92915050565b6000602082840312156116f6576116f5611350565b5b6000611704848285016116cb565b91505092915050565b6117168161166e565b811461172157600080fd5b50565b6000813590506117338161170d565b92915050565b60006020828403121561174f5761174e611350565b5b600061175d84828501611724565b91505092915050565b61176f816116aa565b82525050565b600060208201905061178a6000830184611766565b92915050565b7f4e487b7100000000000000000000000000000000000000000000000000000000600052602260045260246000fd5b600060028204905060018216806117d757607f821691505b602082108114156117eb576117ea611790565b5b50919050565b7f4f6e6c7920746865206f776e65722063616e207365742074686520626173652060008201527f746f6b656e205552490000000000000000000000000000000000000000000000602082015250565b600061184d602983611420565b9150611858826117f1565b604082019050919050565b6000602082019050818103600083015261187c81611840565b9050919050565b7f546865206163636f756e7420646f6573206e6f74206861766520616e7920534260008201527f5400000000000000000000000000000000000000000000000000000000000000602082015250565b60006118df602183611420565b91506118ea82611883565b604082019050919050565b6000602082019050818103600083015261190e816118d2565b9050919050565b7f4f6e6c7920746865206f776e65722063616e207265766f6b652074686520534260008201527f5400000000000000000000000000000000000000000000000000000000000000602082015250565b6000611971602183611420565b915061197c82611915565b604082019050919050565b600060208201905081810360008301526119a081611964565b9050919050565b7f4164647265737320697320656d70747900000000000000000000000000000000600082015250565b60006119dd601083611420565b91506119e8826119a7565b602082019050919050565b60006020820190508181036000830152611a0c816119d0565b9050919050565b600081905092915050565b60008190508160005260206000209050919050565b60008154611a40816117bf565b611a4a8186611a13565b94506001821660008114611a655760018114611a7657611aa9565b60ff19831686528186019350611aa9565b611a7f85611a1e565b60005b83811015611aa157815481890152600182019150602081019050611a82565b838801955050505b50505092915050565b6000611abd82611415565b611ac78185611a13565b9350611ad7818560208601611431565b80840191505092915050565b6000611aef8285611a33565b9150611afb8284611ab2565b91508190509392505050565b7f4f6e6c7920746865206f776e65722063616e206174746573742074686520534260008201527f5400000000000000000000000000000000000000000000000000000000000000602082015250565b6000611b63602183611420565b9150611b6e82611b07565b604082019050919050565b60006020820190508181036000830152611b9281611b56565b9050919050565b7f53425420616c7265616479206578697374730000000000000000000000000000600082015250565b6000611bcf601283611420565b9150611bda82611b99565b602082019050919050565b60006020820190508181036000830152611bfe81611bc2565b9050919050565b7f4e487b7100000000000000000000000000000000000000000000000000000000600052601160045260246000fd5b6000611c3f826116aa565b91507fffffffffffffffffffffffffffffffffffffffffffffffffffffffffffffffff821415611c7257611c71611c05565b5b600182019050919050565b7f4e487b7100000000000000000000000000000000000000000000000000000000600052601260045260246000fd5b6000611cb7826116aa565b9150611cc2836116aa565b925082611cd257611cd1611c7d565b5b828204905092915050565b6000611ce8826116aa565b9150611cf3836116aa565b925082821015611d0657611d05611c05565b5b828203905092915050565b6000611d1c826116aa565b9150611d27836116aa565b925082611d3757611d36611c7d565b5b828206905092915050565b6000611d4d826116aa565b9150611d58836116aa565b9250827fffffffffffffffffffffffffffffffffffffffffffffffffffffffffffffffff03821115611d8d57611d8c611c05565b5b828201905092915050565b7f4e487b7100000000000000000000000000000000000000000000000000000000600052603260045260246000fd5b7f456e756d657261626c654d61703a206e6f6e6578697374656e74206b65790000600082015250565b6000611dfd601e83611420565b9150611e0882611dc7565b602082019050919050565b60006020820190508181036000830152611e2c81611df0565b9050919050565b7f4e487b7100000000000000000000000000000000000000000000000000000000600052603160045260246000fdfe5468652077616c6c657420686173206e6f7420617474657374656420616e7920534254a2646970667358221220491c361898280abb72f16ead3436f70ac4c3b8ed33368efe2dd8e7f54c924d1964736f6c63430008090033",
  "linkReferences": {},
  "deployedLinkReferences": {}
}